:020000040000FA
:1000000068100020750100007D0100007F010000E4
:1000100081010000830100008501000055000000FF
:100020000000000000000000000000008701000048
:1000300089010000000000008B0100008D0100001C
:100040008F0100008F0100008F0100008F01000070
:100050008F0100008F0100008F0100008F01000060
:100060008F0100008F0100008F0100008F01000050
:100070008F0100008F0100008F0100008F01000040
:100080008F0100008F0100008F0100008F01000030
:100090008F0100008F0100008F0100008F01000020
:1000A0008F0100008F0100008F0100008F01000010
:1000B0008F0100008F0100008F0100008F01000000
:1000C00000F002F800F03AF80AA090E8000C824430
:1000D0008344AAF10107DA4501D100F02FF8AFF20D
:1000E000090EBAE80F0013F0010F18BFFB1A43F016
:1000F000010318475001000070010000103A24BFAE
:1001000078C878C1FAD8520724BF30C830C144BF7C
:1001100004680C60704700000023002400250026BE
:10012000103A28BF78C1FBD8520728BF30C148BF5A
:100130000B6070471FB51FBD10B510BD00F047F82C
:100140001146FFF7F7FF00F035F800F065F803B44B
:10015000FFF7F2FF03BC00F06DF80000034804490C
:1001600008607047014802490860704740787D0187
:10017000000000200948804709480047FEE7FEE7E5
:10018000FEE7FEE7FEE7FEE7FEE7FEE7FEE7FEE747
:1001900004480549054A064B704700006501000008
:1001A000C10000006800002068100020680C0020DA
:1001B000680C002004E003480068401C0149086006
:1001C000F9E700000400002070477047704775464B
:1001D00000F02CF8AE4605006946534620F00700B3
:1001E000854618B020B5FFF7D3FFBDE820404FF09B
:1001F00000064FF000074FF000084FF0000B21F011
:100200000701AC46ACE8C009ACE8C009ACE8C009DD
:10021000ACE8C0098D46704710B50446AFF30080C6
:100220002046BDE81040FFF792BF0000004870472D
:100230000800002001491820ABBEFEE7260002009E
:100240007047000064020000000000200800000069
:10025000FC0000006C02000008000020601000009C
:0C0260001801000040787D010000000043
:040000050000017581
:00000001FF
